{
  "_format": "hh-sol-artifact-1",
  "contractName": "Tracking",
  "sourceName": "contracts/Tracking.sol",
  "abi": [
    {
      "inputs": [],
      "stateMutability": "nonpayable",
      "type": "constructor"
    },
    {
      "anonymous": false,
      "inputs": [
        {
          "indexed": true,
          "internalType": "address",
          "name": "sender",
          "type": "address"
        },
        {
          "indexed": true,
          "internalType": "address",
          "name": "reciever",
          "type": "address"
        },
        {
          "indexed": false,
          "internalType": "uint256",
          "name": "pickupTime",
          "type": "uint256"
        },
        {
          "indexed": false,
          "internalType": "uint256",
          "name": "distance",
          "type": "uint256"
        },
        {
          "indexed": false,
          "internalType": "uint256",
          "name": "price",
          "type": "uint256"
        }
      ],
      "name": "ShipmentCreated",
      "type": "event"
    },
    {
      "anonymous": false,
      "inputs": [
        {
          "indexed": true,
          "internalType": "address",
          "name": "sender",
          "type": "address"
        },
        {
          "indexed": true,
          "internalType": "address",
          "name": "reciever",
          "type": "address"
        },
        {
          "indexed": false,
          "internalType": "uint256",
          "name": "deliveryTime",
          "type": "uint256"
        }
      ],
      "name": "ShipmentDelivered",
      "type": "event"
    },
    {
      "anonymous": false,
      "inputs": [
        {
          "indexed": true,
          "internalType": "address",
          "name": "sender",
          "type": "address"
        },
        {
          "indexed": true,
          "internalType": "address",
          "name": "reciever",
          "type": "address"
        },
        {
          "indexed": false,
          "internalType": "uint256",
          "name": "pickupTime",
          "type": "uint256"
        }
      ],
      "name": "ShipmentInTransit",
      "type": "event"
    },
    {
      "anonymous": false,
      "inputs": [
        {
          "indexed": true,
          "internalType": "address",
          "name": "sender",
          "type": "address"
        },
        {
          "indexed": true,
          "internalType": "address",
          "name": "reciever",
          "type": "address"
        },
        {
          "indexed": false,
          "internalType": "uint256",
          "name": "amount",
          "type": "uint256"
        }
      ],
      "name": "ShipmentPaid",
      "type": "event"
    },
    {
      "inputs": [
        {
          "internalType": "address",
          "name": "_sender",
          "type": "address"
        },
        {
          "internalType": "address",
          "name": "_reciever",
          "type": "address"
        },
        {
          "internalType": "uint256",
          "name": "_index",
          "type": "uint256"
        }
      ],
      "name": "completeShipment",
      "outputs": [],
      "stateMutability": "nonpayable",
      "type": "function"
    },
    {
      "inputs": [
        {
          "internalType": "address",
          "name": "_reciever",
          "type": "address"
        },
        {
          "internalType": "uint256",
          "name": "_pickupTime",
          "type": "uint256"
        },
        {
          "internalType": "uint256",
          "name": "_distance",
          "type": "uint256"
        },
        {
          "internalType": "uint256",
          "name": "_price",
          "type": "uint256"
        }
      ],
      "name": "createShipment",
      "outputs": [],
      "stateMutability": "payable",
      "type": "function"
    },
    {
      "inputs": [],
      "name": "getAllTransactions",
      "outputs": [
        {
          "components": [
            {
              "internalType": "address",
              "name": "sender",
              "type": "address"
            },
            {
              "internalType": "address",
              "name": "reciever",
              "type": "address"
            },
            {
              "internalType": "uint256",
              "name": "pickupTime",
              "type": "uint256"
            },
            {
              "internalType": "uint256",
              "name": "deliveryTime",
              "type": "uint256"
            },
            {
              "internalType": "uint256",
              "name": "distance",
              "type": "uint256"
            },
            {
              "internalType": "uint256",
              "name": "price",
              "type": "uint256"
            },
            {
              "internalType": "enum Tracking.ShipmentStatus",
              "name": "status",
              "type": "uint8"
            },
            {
              "internalType": "bool",
              "name": "isPaid",
              "type": "bool"
            }
          ],
          "internalType": "struct Tracking.TypeShipment[]",
          "name": "",
          "type": "tuple[]"
        }
      ],
      "stateMutability": "view",
      "type": "function"
    },
    {
      "inputs": [
        {
          "internalType": "address",
          "name": "_sender",
          "type": "address"
        },
        {
          "internalType": "uint256",
          "name": "_index",
          "type": "uint256"
        }
      ],
      "name": "getShipment",
      "outputs": [
        {
          "internalType": "address",
          "name": "",
          "type": "address"
        },
        {
          "internalType": "address",
          "name": "",
          "type": "address"
        },
        {
          "internalType": "uint256",
          "name": "",
          "type": "uint256"
        },
        {
          "internalType": "uint256",
          "name": "",
          "type": "uint256"
        },
        {
          "internalType": "uint256",
          "name": "",
          "type": "uint256"
        },
        {
          "internalType": "uint256",
          "name": "",
          "type": "uint256"
        },
        {
          "internalType": "enum Tracking.ShipmentStatus",
          "name": "",
          "type": "uint8"
        },
        {
          "internalType": "bool",
          "name": "",
          "type": "bool"
        }
      ],
      "stateMutability": "view",
      "type": "function"
    },
    {
      "inputs": [
        {
          "internalType": "address",
          "name": "_sender",
          "type": "address"
        }
      ],
      "name": "getShipmentCount",
      "outputs": [
        {
          "internalType": "uint256",
          "name": "",
          "type": "uint256"
        }
      ],
      "stateMutability": "view",
      "type": "function"
    },
    {
      "inputs": [],
      "name": "shipmentCount",
      "outputs": [
        {
          "internalType": "uint256",
          "name": "",
          "type": "uint256"
        }
      ],
      "stateMutability": "view",
      "type": "function"
    },
    {
      "inputs": [
        {
          "internalType": "address",
          "name": "",
          "type": "address"
        },
        {
          "internalType": "uint256",
          "name": "",
          "type": "uint256"
        }
      ],
      "name": "shipments",
      "outputs": [
        {
          "internalType": "address",
          "name": "sender",
          "type": "address"
        },
        {
          "internalType": "address",
          "name": "reciever",
          "type": "address"
        },
        {
          "internalType": "uint256",
          "name": "pickupTime",
          "type": "uint256"
        },
        {
          "internalType": "uint256",
          "name": "deliveryTime",
          "type": "uint256"
        },
        {
          "internalType": "uint256",
          "name": "distance",
          "type": "uint256"
        },
        {
          "internalType": "uint256",
          "name": "price",
          "type": "uint256"
        },
        {
          "internalType": "enum Tracking.ShipmentStatus",
          "name": "status",
          "type": "uint8"
        },
        {
          "internalType": "bool",
          "name": "isPaid",
          "type": "bool"
        }
      ],
      "stateMutability": "view",
      "type": "function"
    },
    {
      "inputs": [
        {
          "internalType": "address",
          "name": "_sender",
          "type": "address"
        },
        {
          "internalType": "address",
          "name": "_reciever",
          "type": "address"
        },
        {
          "internalType": "uint256",
          "name": "_index",
          "type": "uint256"
        }
      ],
      "name": "startShipment",
      "outputs": [],
      "stateMutability": "nonpayable",
      "type": "function"
    }
  ],
  "bytecode": "0x608060405234801561001057600080fd5b50600060018190555061193e806100286000396000f3fe60806040526004361061007b5760003560e01c80638365da541161004e5780638365da5414610141578063aace20b714610185578063b7dfd93d146101b0578063cbc4b181146101ed5761007b565b8063179a878c1461008057806327506f53146100a95780635667e02f146100d45780637ff5265d14610118575b600080fd5b34801561008c57600080fd5b506100a760048036038101906100a291906111b8565b610209565b005b3480156100b557600080fd5b506100be6105d4565b6040516100cb919061140d565b60405180910390f35b3480156100e057600080fd5b506100fb60048036038101906100f6919061142f565b61075e565b60405161010f9897969594939291906114ab565b60405180910390f35b34801561012457600080fd5b5061013f600480360381019061013a91906111b8565b61081d565b005b34801561014d57600080fd5b506101686004803603810190610163919061142f565b610a79565b60405161017c9897969594939291906114ab565b60405180910390f35b34801561019157600080fd5b5061019a610c63565b6040516101a79190611529565b60405180910390f35b3480156101bc57600080fd5b506101d760048036038101906101d29190611544565b610c69565b6040516101e49190611529565b60405180910390f35b61020760048036038101906102029190611571565b610cb4565b005b60008060008573ffffffffffffffffffffffffffffffffffffffff1673ffffffffffffffffffffffffffffffffffffffff168152602001908152602001600020828154811061025b5761025a6115d8565b5b90600052602060002090600702019050600060028381548110610281576102806115d8565b5b906000526020600020906007020190508373ffffffffffffffffffffffffffffffffffffffff168260010160009054906101000a900473ffffffffffffffffffffffffffffffffffffffff1673ffffffffffffffffffffffffffffffffffffffff1614610323576040517f08c379a000000000000000000000000000000000000000000000000000000000815260040161031a90611664565b60405180910390fd5b6001600281111561033757610336611255565b5b8260060160009054906101000a900460ff16600281111561035b5761035a611255565b5b1461039b576040517f08c379a0000000000000000000000000000000000000000000000000000000008152600401610392906116d0565b60405180910390fd5b8160060160019054906101000a900460ff16156103ed576040517f08c379a00000000000000000000000000000000000000000000000000000000081526004016103e49061173c565b60405180910390fd5b60028260060160006101000a81548160ff0219169083600281111561041557610414611255565b5b021790555060028160060160006101000a81548160ff0219169083600281111561044257610441611255565b5b02179055504281600301819055506000826005015490508260000160009054906101000a900473ffffffffffffffffffffffffffffffffffffffff1673ffffffffffffffffffffffffffffffffffffffff166108fc829081150290604051600060405180830381858888f193505050501580156104c3573d6000803e3d6000fd5b5060018360060160016101000a81548160ff02191690831515021790555060018260060160016101000a81548160ff0219169083151502179055508473ffffffffffffffffffffffffffffffffffffffff168673ffffffffffffffffffffffffffffffffffffffff167f3746ccceb54f44c9b0ee0120e596168d07ec9f6ca303cfdd9810d3b2e2686a2e856003015460405161055f9190611529565b60405180910390a38473ffffffffffffffffffffffffffffffffffffffff168673ffffffffffffffffffffffffffffffffffffffff167f2b6f2473aebafaf8d0889669490135928ec4454d2e29a103fd39693bbca6aef1836040516105c49190611529565b60405180910390a3505050505050565b60606002805480602002602001604051908101604052809291908181526020016000905b828210156107555783829060005260206000209060070201604051806101000160405290816000820160009054906101000a900473ffffffffffffffffffffffffffffffffffffffff1673ffffffffffffffffffffffffffffffffffffffff1673ffffffffffffffffffffffffffffffffffffffff1681526020016001820160009054906101000a900473ffffffffffffffffffffffffffffffffffffffff1673ffffffffffffffffffffffffffffffffffffffff1673ffffffffffffffffffffffffffffffffffffffff168152602001600282015481526020016003820154815260200160048201548152602001600582015481526020016006820160009054906101000a900460ff16600281111561071557610714611255565b5b600281111561072757610726611255565b5b81526020016006820160019054906101000a900460ff161515151581525050815260200190600101906105f8565b50505050905090565b6000602052816000526040600020818154811061077a57600080fd5b9060005260206000209060070201600091509150508060000160009054906101000a900473ffffffffffffffffffffffffffffffffffffffff16908060010160009054906101000a900473ffffffffffffffffffffffffffffffffffffffff16908060020154908060030154908060040154908060050154908060060160009054906101000a900460ff16908060060160019054906101000a900460ff16905088565b60008060008573ffffffffffffffffffffffffffffffffffffffff1673ffffffffffffffffffffffffffffffffffffffff168152602001908152602001600020828154811061086f5761086e6115d8565b5b90600052602060002090600702019050600060028381548110610895576108946115d8565b5b906000526020600020906007020190508373ffffffffffffffffffffffffffffffffffffffff168260010160009054906101000a900473ffffffffffffffffffffffffffffffffffffffff1673ffffffffffffffffffffffffffffffffffffffff1614610937576040517f08c379a000000000000000000000000000000000000000000000000000000000815260040161092e90611664565b60405180910390fd5b6000600281111561094b5761094a611255565b5b8260060160009054906101000a900460ff16600281111561096f5761096e611255565b5b146109af576040517f08c379a00000000000000000000000000000000000000000000000000000000081526004016109a6906117a8565b60405180910390fd5b60018260060160006101000a81548160ff021916908360028111156109d7576109d6611255565b5b021790555060018160060160006101000a81548160ff02191690836002811115610a0457610a03611255565b5b02179055508373ffffffffffffffffffffffffffffffffffffffff168573ffffffffffffffffffffffffffffffffffffffff167faafab9f94340179ff9cefd29621e1772a4b8efab8023163838f1b0a8f6ce5df58460020154604051610a6a9190611529565b60405180910390a35050505050565b60008060008060008060008060008060008c73ffffffffffffffffffffffffffffffffffffffff1673ffffffffffffffffffffffffffffffffffffffff1681526020019081526020016000208a81548110610ad757610ad66115d8565b5b9060005260206000209060070201604051806101000160405290816000820160009054906101000a900473ffffffffffffffffffffffffffffffffffffffff1673ffffffffffffffffffffffffffffffffffffffff1673ffffffffffffffffffffffffffffffffffffffff1681526020016001820160009054906101000a900473ffffffffffffffffffffffffffffffffffffffff1673ffffffffffffffffffffffffffffffffffffffff1673ffffffffffffffffffffffffffffffffffffffff168152602001600282015481526020016003820154815260200160048201548152602001600582015481526020016006820160009054906101000a900460ff166002811115610bea57610be9611255565b5b6002811115610bfc57610bfb611255565b5b81526020016006820160019054906101000a900460ff1615151515815250509050806000015181602001518260400151836060015184608001518560a001518660c001518760e0015198509850985098509850985098509850509295985092959890939650565b60015481565b60008060008373ffffffffffffffffffffffffffffffffffffffff1673ffffffffffffffffffffffffffffffffffffffff168152602001908152602001600020805490509050919050565b803414610cf6576040517f08c379a0000000000000000000000000000000000000000000000000000000008152600401610ced9061183a565b60405180910390fd5b60006040518061010001604052803373ffffffffffffffffffffffffffffffffffffffff1681526020018673ffffffffffffffffffffffffffffffffffffffff1681526020018581526020016000815260200184815260200183815260200160006002811115610d6957610d68611255565b5b81526020016000151581525090506000803373ffffffffffffffffffffffffffffffffffffffff1673ffffffffffffffffffffffffffffffffffffffff16815260200190815260200160002081908060018154018082558091505060019003906000526020600020906007020160009091909190915060008201518160000160006101000a81548173ffffffffffffffffffffffffffffffffffffffff021916908373ffffffffffffffffffffffffffffffffffffffff16021790555060208201518160010160006101000a81548173ffffffffffffffffffffffffffffffffffffffff021916908373ffffffffffffffffffffffffffffffffffffffff16021790555060408201518160020155606082015181600301556080820151816004015560a0820151816005015560c08201518160060160006101000a81548160ff02191690836002811115610ec057610ebf611255565b5b021790555060e08201518160060160016101000a81548160ff021916908315150217905550505060016000815480929190610efa90611889565b919050555060026040518061010001604052803373ffffffffffffffffffffffffffffffffffffffff1681526020018773ffffffffffffffffffffffffffffffffffffffff1681526020018681526020016000815260200185815260200184815260200160006002811115610f7257610f71611255565b5b815260200160001515815250908060018154018082558091505060019003906000526020600020906007020160009091909190915060008201518160000160006101000a81548173ffffffffffffffffffffffffffffffffffffffff021916908373ffffffffffffffffffffffffffffffffffffffff16021790555060208201518160010160006101000a81548173ffffffffffffffffffffffffffffffffffffffff021916908373ffffffffffffffffffffffffffffffffffffffff16021790555060408201518160020155606082015181600301556080820151816004015560a0820151816005015560c08201518160060160006101000a81548160ff0219169083600281111561108857611087611255565b5b021790555060e08201518160060160016101000a81548160ff02191690831515021790555050508473ffffffffffffffffffffffffffffffffffffffff163373ffffffffffffffffffffffffffffffffffffffff167f5001b34ecf2db5b7bbeddcbbe761ec9ecadcc7638018b98ce3e24995b0e946b6868686604051611110939291906118d1565b60405180910390a35050505050565b600080fd5b600073ffffffffffffffffffffffffffffffffffffffff82169050919050565b600061114f82611124565b9050919050565b61115f81611144565b811461116a57600080fd5b50565b60008135905061117c81611156565b92915050565b6000819050919050565b61119581611182565b81146111a057600080fd5b50565b6000813590506111b28161118c565b92915050565b6000806000606084860312156111d1576111d061111f565b5b60006111df8682870161116d565b93505060206111f08682870161116d565b9250506040611201868287016111a3565b9150509250925092565b600081519050919050565b600082825260208201905092915050565b6000819050602082019050919050565b61124081611144565b82525050565b61124f81611182565b82525050565b7f4e487b7100000000000000000000000000000000000000000000000000000000600052602160045260246000fd5b6003811061129557611294611255565b5b50565b60008190506112a682611284565b919050565b60006112b682611298565b9050919050565b6112c6816112ab565b82525050565b60008115159050919050565b6112e1816112cc565b82525050565b610100820160008201516112fe6000850182611237565b5060208201516113116020850182611237565b5060408201516113246040850182611246565b5060608201516113376060850182611246565b50608082015161134a6080850182611246565b5060a082015161135d60a0850182611246565b5060c082015161137060c08501826112bd565b5060e082015161138360e08501826112d8565b50505050565b600061139583836112e7565b6101008301905092915050565b6000602082019050919050565b60006113ba8261120b565b6113c48185611216565b93506113cf83611227565b8060005b838110156114005781516113e78882611389565b97506113f2836113a2565b9250506001810190506113d3565b5085935050505092915050565b6000602082019050818103600083015261142781846113af565b905092915050565b600080604083850312156114465761144561111f565b5b60006114548582860161116d565b9250506020611465858286016111a3565b9150509250929050565b61147881611144565b82525050565b61148781611182565b82525050565b611496816112ab565b82525050565b6114a5816112cc565b82525050565b6000610100820190506114c1600083018b61146f565b6114ce602083018a61146f565b6114db604083018961147e565b6114e8606083018861147e565b6114f5608083018761147e565b61150260a083018661147e565b61150f60c083018561148d565b61151c60e083018461149c565b9998505050505050505050565b600060208201905061153e600083018461147e565b92915050565b60006020828403121561155a5761155961111f565b5b60006115688482850161116d565b91505092915050565b6000806000806080858703121561158b5761158a61111f565b5b60006115998782880161116d565b94505060206115aa878288016111a3565b93505060406115bb878288016111a3565b92505060606115cc878288016111a3565b91505092959194509250565b7f4e487b7100000000000000000000000000000000000000000000000000000000600052603260045260246000fd5b600082825260208201905092915050565b7f496e76616c696420726563696576657200000000000000000000000000000000600082015250565b600061164e601083611607565b915061165982611618565b602082019050919050565b6000602082019050818103600083015261167d81611641565b9050919050565b7f536869706d656e74206e6f7420696e207472616e736974000000000000000000600082015250565b60006116ba601783611607565b91506116c582611684565b602082019050919050565b600060208201905081810360008301526116e9816116ad565b9050919050565b7f536869706d656e7420616c726561647920706169640000000000000000000000600082015250565b6000611726601583611607565b9150611731826116f0565b602082019050919050565b6000602082019050818103600083015261175581611719565b9050919050565b7f536869706d656e7420616c726561647920696e207472616e7369740000000000600082015250565b6000611792601b83611607565b915061179d8261175c565b602082019050919050565b600060208201905081810360008301526117c181611785565b9050919050565b7f5061796d656e7420616d6f756e74206d757374206d617463682074686520707260008201527f6963652e00000000000000000000000000000000000000000000000000000000602082015250565b6000611824602483611607565b915061182f826117c8565b604082019050919050565b6000602082019050818103600083015261185381611817565b9050919050565b7f4e487b7100000000000000000000000000000000000000000000000000000000600052601160045260246000fd5b600061189482611182565b91507fffffffffffffffffffffffffffffffffffffffffffffffffffffffffffffffff82036118c6576118c561185a565b5b600182019050919050565b60006060820190506118e6600083018661147e565b6118f3602083018561147e565b611900604083018461147e565b94935050505056fea264697066735822122087589f1ba95467b1fec85dc67fc10955d87f3cc07abde589e8f17b68ca54652464736f6c63430008180033",
  "linkReferences": {},
  "deployedLinkReferences": {}
}